:1017AB0025303262782530326278253032627825E6
:1017BB0030326278253032627825303262782530CB
:1017CB00326278000E0C0D090B03070600C1814035
:1017DB0001C0804101C0804100C1814001C08041F6
:1017EB0000C1814000C1814001C0804101C08041E6
:1017FB0000C1814000C1814001C0804100C18140D6
:10180B0001C0804101C0804100C1814001C08041C5
:10181B0000C1814000C1814001C0804100C18140B5
:10182B0001C0804101C0804100C1814000C18140A5
:10183B0001C0804101C0804100C1814001C0804195
:10184B0000C1814000C1814001C0804101C0804185
:10185B0000C1814000C1814001C0804100C1814075
:10186B0001C0804101C0804100C1814000C1814065
:10187B0001C0804101C0804100C1814001C0804155
:10188B0000C1814000C1814001C0804100C1814045
:10189B0001C0804101C0804100C1814001C0804135
:1018AB0000C1814000C1814001C0804101C0804125
:1018BB0000C1814000C1814001C0804100C1814015
:1018CB0001C0804101C0804100C1814000C0C10105
:1018DB00C30302C2C60607C705C5C404CC0C0DCD95
:1018EB000FCFCE0E0ACACB0BC90908C8D81819D905
:1018FB001BDBDA1A1EDEDF1FDD1D1CDC14D4D51535
:10190B00D71716D6D21213D311D1D010F03031F124
:10191B0033F3F23236F6F737F53534F43CFCFD3D54
:10192B00FF3F3EFEFA3A3BFB39F9F83828E8E92944
:10193B00EB2B2AEAEE2E2FEF2DEDEC2CE42425E5F4
:10194B0027E7E62622E2E323E12120E0A06061A164
:10195B0063A3A26266A6A767A56564A46CACAD6D14
:10196B00AF6F6EAEAA6A6BAB69A9A86878B8B97984
:10197B00BB7B7ABABE7E7FBF7DBDBC7CB47475B5B4
:10198B0077B7B67672B2B373B17170B050909151A4
:10199B009353529296565797559594549C5C5D9DD4
:1019AB005F9F9E5E5A9A9B5B9959589888484989C4
:1019BB004B8B8A4A4E8E8F4F8D4D4C8C4484854574
:0C19CB008747468682424383418180406A
:103A23007FF1C003C002C0019007E274FFF0A374EA
:103A330017F0A374ABF00F78F1E6A3F07EF20F0852
:103A4300E6A3F00E0F08E6A3F00E0F08E6A3F00EB0
:103A53000F08E6A3F00E0F08E6A3F008E6A3F0D0E4
:083A630001D002D003020F6044
:1040A2009007CB7402F09007CA04F07B017A07797B
:0A40B200CA7F04121D90A20192C102
:0140BC0022E1
:10404E009007D17440F09007D07403F07B017A078B
:0B405E0079D07F02121D90A20192A6F3
:014069002234
:0B42D000E58754FC4401F58700002244
:0F41E600AD07EE547F4480AE058EAAF5AB000006
:0141F50022A7
:0B42DB00E58754FC4402F58700002238
:05435200A20192A2226D
:1040D800EF7005C2C3D2C222EFB40105D2C3C2C277
:0A40E80022EFB40204C2C3C2C222D8
:05435700A21592C02236
:0743090020A402C322D3220D
:10000E0020A4107F327E007D007C00123AFB20A4DB
:05001E0002D322C32201
:0F422600E4F5BDF5BEEF4480F5BCAF058FDE2299
:103C5500EF44C0F5BC000000000000E5BC30E5FB0A
:103C650053BCDFAFBD7E00E5BE54F0FDEFC4F85494
:103C75000FC868FBEEC454F048FAAF05EEC4F8541B
:103C8500F0C868FEEDC4540F48FFEE4AFEEF4BFF47
:013C9500220C
:103F4F00EF30E004D2928002C292EF30E104D293BC
:103F5F008002C293EF30E204D2948002C294EF3019
:083F6F00E303D29522C2952262
:10406A00EFC394645013EF75F00A84C454F0FEEF62
:0C407A0075F00A84E5F02EFF227FFF2283
:0F423500EFC4540F75F00AA4FEEF540F2EFF22B2
:1041C200EF75F00A84C454F0FEEF75F00A84E5F04E
:0341D2004EFF227B
:10410C00EFC3940A5005EF2430FF22EFC3941050F4
:09411C0005EF2437FF227FFF228A
:1040F200EDC4540FFF12410CEF12099DED540FFF56
:0A41020012410C900001EF0209AF1A
:103CD500EFD39439500BEFC394304029EF24D0FF34
:103CE50022EFD39446500BEFC394414018EF24C9FB
:103CF500FF22EFD39466500BEFC394614007EF2486
:063D0500A9FF227FFF224E
:014382002218
:014383002217
:014384002216
:0B2B6E00900950EBF0A3EAF0A3E9F09F
:102B7900E4900956F0A3F0900950E0FBA3E0FAA312
:102B8900E0F9900956E0FEA3E0FFF5828E83120971
:102B9900706010900957E004F070DC900956E00469
:102BA900F080D4900958EEF0A3EFF0E4900956F0C4
:102BB900A3F0900953E0FBA3E0FAA3E0F9A3E0FE38
:102BC900A3E0F5828E83120970FF6037900958E0FF
:102BD900FCA3E0FD900957E02DFD900956E03CFC6F
:102BE900900950E0FBA3E0FAA3E0F98D828C83EF12
:102BF9001209AF900957E004F070B7900956E00444
:102C0900F080AF900958E0FEA3E0FF900957E02F4C
:102C1900FF900956E03EFE900950E0FBA3E0FAA3BD
:0A2C2900E0F98F828E83E40209AF08
:0E394000900996EBF0A3EAF0A3E9F0A3EDF0F6
:10394E00E4FFFE900996E0FBA3E0FAA3E0F98F8274
:10395E008E8312097060070FBF00010E80E590097B
:10396E0099E0FD900996E0FBA3E0FAA3E0F98F82BF
:0F397E008E83ED1209AF8F828E83A3E40209AF0F
:10398D00900991EBF0A3EAF0A3E9F0A3ECF0A3ED1D
:01399D00F039
:10399E007FFF7DFF90099474FFF5F01209E745F063
:1039AE006025900991E0FBA3E475F0011209E7A9E7
:1039BE00F0FA1209576FFB7A009017D7936DFFEB51
:0B39CE009018D793FD80CDEFFEEDFFB9
:0139D90022CB
:1037FD00900964EBF0A3EAF0A3E9F0A3ECF0A3EDDC
:01380D00F0CA
:10380E0090096AE0FD900969E0FF90096774FFF581
:10381E00F01209E745F06025900964E0FBA3E4751A
:10382E00F0011209E7A9F0FA1209576FFB7A00901E
:10383E0017D7936DFFEB9018D793FD80CDEFFEED6C
:01384E00FF7A
:01384F002256
:104125007401A807088002C333D8FCF59D53A2FB90
:09413500E4F5BDF5BE75BCE02205
:103EF900EF44E8F5BC000000000000E5BC30E4FB3D
:103F090053BCEFAFBD7E00EF7802C333CE33CED8BA
:0A3F1900F9FFE5BE5403FDEF4DFF74
:013F2300227B
:1028D500EFD3940440037F0122EF7044900002126D
:1028E5000970B40104D2A88002C2A890000112099F
:1028F50070FEB40104D2B88006EEB40107C2B84335
:10290500B701800DEEB40104D2B88002C2B853B746
:10291500FE120957B40104D2888002C2887F0022C2
:10292500EF64017044900002120970B40104D2AA48
:102935008002C2AA900001120970FEB40104D2BA45
:102945008006EEB40107C2BA43B704800DEEB401A8
:1029550004D2BA8002C2BA53B7FB120957B40104B4
:10296500D28A8002C28A7F0022EFB402149000024C
:10297500120970B40105438F108003538FEF7F0058
:1029850022EFB40314900002120970B40105438FBD
:10299500208003538FDF7F0022EFB40414900002E0
:1029A500120970B40105438F408003538FBF7F0028
:0429B500227F022259
:101D9000EFD3940540037F0122120957FED3940329
:101DA00040037F0222EF7041EE700B900001120998
:101DB00070F452935294120957B4010B900001121F
:101DC00009704293F45294120957FEB4020A90002B
:101DD0000112097042934294EEB4030D9000011277
:101DE0000970FEF45293EE4294EF640170431209BD
:101DF00057FE700B900001120970F452915292EE4E
:101E0000B4010B9000011209704291F45292120930
:101E100057B4020A900001120970429142921209CD
:101E200057B4030D900001120970FEF45291EE4276
:101E300092EF64027043120957FE700B900001127A
:101E40000970F452955296EEB4010B9000011209FC
:101E5000704295F45296120957B4020A900001128A
:101E6000097042954296120957B4030D9000011271
:101E70000970FEF45295EE4296EF64037043120926
:101E800057FE700B900001120970F452B152B2EE7D
:101E9000B4010B90000112097042B1F452B2120960
:101EA00057B4020A90000112097042B142B21209FD
:101EB00057B4030D900001120970FEF452B1EE42C6
:101EC000B2EF64047043120957FE700B90000112C8
:101ED0000970F452B352B4EEB4010B900001120930
:101EE0007042B3F452B4120957B4020A90000112BE
:101EF000097042B342B4120957B4030D90000112A5
:101F00000970FEF452B3EE42B4EF64057043120957
:101F100057FF700B900001120970F452C952CAEFBA
:101F2000B4010B90000112097042C9F452CA12099F
:101F300057B4020A90000112097042C942CA12093C
:101F400057B4030D900001120970FFF452C9EF421B
:041F5000CA7F002222
:103D0B00257325303262753A25303262753A25308B
:103D1B003262750D0A00257325643A2530326275BF
:103D2B003A25303262752C207765656B203A202559
:053D3B0062750D0A0095
:1031D200C10E440903000000004408F90000000089
:0F31E2004408F500000000C10CC10DC10AC10B6B
:103E9F00438E80438901E47BE87A03F9F8120AD252
:103EAF00C3E49FFFE49E900901F0A3EFF0E0F58AD1
:0D3EBF00900901E0F58CD28CD2A9C2B92285
:03000B00021F547D
:101F5400C0E0C0F0C083C082C0D075D000C000C053
:101F640001C002C003C004C005C006C00790090335
:101F7400E0FCA3E0FDA3E0FEA3E02401FFE43EFEB9
:101F8400E43DFDE43CFC900903120BAC900902E033
:101F9400F58A900901E0F58CE47BE87A03F9F8907E
:101FA4000903E0FCA3E0FDA3E0FEA3E0FF120AD2D4
:101FB400AC00AD01AE02AF03E4FBFAF9F8C3120BB7
:101FC40088600302206B9008F9E0FCA3E0FDA3E025
:101FD400FEA3E02401FFE43EFEE43DFDE43CFC906E
:101FE40008F9120BACE47B3CF89008F9E0FCA3E0A0
:101FF400FDA3E0FEA3E0FF120AD2AC00AD01AE02E5
:10200400AF03E4FBFAF9F8C3120B88701F9008F5CC
:10201400E0FCA3E0FDA3E0FEA3E02401FFE43EFE18
:10202400E43DFDE43CFC9008F5120BAC9008ECE0B8
:1020340004F0E0643C70309008EBE004F0E0B43C61
:10204400219008EAE004F0E0B418129008E9E004F2
:10205400F0E0B408037401F09008EAE4F09008EBAF
:10206400E4F09008ECE4F0E47B05FAF9F890090355
:10207400E0FCA3E0FDA3E0FEA3E0FF120AD2AC0063
:10208400AD01AE02AF03E4FBFAF9F8C3120B88709A
:1020940018300C03120000300D03120000300A0344
:1020A400120096300B031200003010439008F1E048
:1020B400FCA3E0FDA3E0FEA3E02401FFE43EFEE474
:1020C4003DFDE43CFC9008F1120BAC9008EDE0FC03
:1020D400A3E0FDA3E0FEA3E0FFA3E0F8A3E0F9A3DF
:1020E400E0FAA3E0FBD3120B884004D20FC210D055
:1020F40007D006D005D004D003D002D001D000D040
:0A210400D0D082D083D0F0D0E032BA
:103FC700E49008ECF09008EBF09008EAF09008E92C
:103FD70004F09008E57407F0A374DFF0A37401F010
:053FE700A3F0C20E2250
:0942E6009008E5EEF0A3EFF022D0
:064310009008E7EFF02227
:064316009008E8EFF02220
:06431C009008E9EFF02219
:064322009008EAEFF02212
:064328009008EBEFF0220B
:06432E009008ECEFF02204
:03009000D20E226B
:06433400A20EE433FF229B
:1040BD009008EAE012099D9008EBE09000011209CA
:0B40CD00AF9008ECE09000020209AF89
:0B1BB500900907EBF0A3EAF0A3E9F0B1
:101BC000120957FFE4FCFDFE90090D120BAC9009C1
:101BD0000DE0FCA3E0FDA3E0FEA3E0FFE47B107AB0
:101BE0000EF9F8120A4790090D120BAC90090DE09E
:101BF000F8A3E0F9A3E0FAA3E0FBC000C001C00233
:101C0000C003900907E0FBA3E0FAA3E0F99000010C
:101C100012097075F03CA4FFE4FCFDD003D002D0A3
:101C200001D000EB2FFFEA35F0FEED39FDEC38FC7A
:101C300090090D120BAC90090DE0F8A3E0F9A3E0B8
:101C4000FAA3E0FBC000C001C002C003900907E096
:101C5000FBA3E0FAA3E0F9900002120970FFE4FC94
:101C6000FDFED003D002D001D000EB2FFFEE3AFEF4
:101C7000ED39FDEC38FC90090D120BAC90090AE02F
:101C8000FBA3E0FAA3E0F9120957FFE4FCFDFE9084
:101C90000911120BAC900911E0FCA3E0FDA3E0FEDA
:101CA000A3E0FFE47B107A0EF9F8120A47900911BD
:101CB000120BAC900911E0F8A3E0F9A3E0FAA3E05D
:101CC000FBC000C001C002C00390090AE0FBA3E012
:101CD000FAA3E0F990000112097075F03CA4FFE44A
:101CE000FCFDD003D002D001D000EB2FFFEA35F08D
:101CF000FEED39FDEC38FC900911120BAC90091186
:101D0000E0F8A3E0F9A3E0FAA3E0FBC000C001C043
:101D100002C00390090AE0FBA3E0FAA3E0F99000F7
:101D200002120970FFE4FCFDFED003D002D001D006
:101D300000EB2FFFEE3AFEED39FDEC38FC90091177
:101D4000120BAC900911E0FCA3E0FDA3E0FEA3E0C0
:101D5000FF90090DE0F8A3E0F9A3E0FAA3E0FBD3BC
:101D6000120B8840037F0022900911E0FCA3E0FDE4
:101D7000A3E0FEA3E0FF90090DE0F8A3E0F9A3E0E3
:0F1D8000FAA3E0FBC3120B8870037F01227F02DE
:011D8F002231
:103F24009008E8E09000031209AF9008E7E09000E1
:103F3400021209AF9008E5E0FFA3E0CF8FF0120A68
:0B3F4400289008E9E09000040209AF9B
:1038A300900979EBF0A3EAF0A3E9F0900979E0F944
:1038B300A3E0FAA3E09007E2C9F0A3EAF0A3E9F0DA
:1038C30090097CE0FBA3E0FAA3E0F9120957900703
:1038D300E5F09000011209709007E6F090000212E3
:0F38E30009709007E7F07BFF7A3D790B020F66C3
:10352D0090097FEBF0A3EAF0A3E9F090097FE0F9B1
:10353D00A3E0FAA3E09007E2C9F0A3EAF0A3E9F053
:10354D00900982E0FBA3E0FAA3E0F91209FDFF90D8
:10355D0007E5E5F0F0A3EFF0900002120970900777
:10356D00E7F09000031209709007E8F09000041244
:0F357D0009709007E9F07BFF7A3D7921020F6614
:0F424400900903E0FCA3E0FDA3E0FEA3E0FF224E
:0F4253009008F9E0FCA3E0FDA3E0FEA3E0FF224A
:0F4262009008F5E0FCA3E0FDA3E0FEA3E0FF223F
:103AFB00900903E0F8A3E0F9A3E0FAA3E02FFFEAB3
:103B0B003EFEE93DFDE83CFC9008FD120BAC900835
:103B1B00FDE0FCA3E0FDA3E0FEA3E0FF900903E0C2
:103B2B00F8A3E0F9A3E0FAA3E0FBD3120B8850064D
:073B3B000000000080D82209
:1033A00090099A120BACE47FE87E03FDFC90099A29
:1033B000E0F8A3E0F9A3E0FAA3E0FB120A479009C2
:1033C00003E0F8A3E0F9A3E0FAA3E02FFFEA3EFE52
:1033D000E93DFDE83CFC9008FD120BAC9008FDE0D7
:1033E000FCA3E0FDA3E0FEA3E0FF900903E0F8A347
:1033F000E0F9A3E0FAA3E0FBD3120B88500600002B
:05340000000080D8224D
:1034050090099E120BACE47F607EEAFDFC90099E5C
:10341500E0F8A3E0F9A3E0FAA3E0FB120A4790095C
:1034250003E0F8A3E0F9A3E0FAA3E02FFFEA3EFEEC
:10343500E93DFDE83CFC9008FD120BAC9008FDE071
:10344500FCA3E0FDA3E0FEA3E0FF900903E0F8A3E1
:10345500E0F9A3E0FAA3E0FBD3120B8850060000C5
:05346500000080D822E8
:103B42009007DF120BACE4FFFEFDFC9007DFE0F80C
:103B5200A3E0F9A3E0FAA3E0FBC3120B887005C24D
:103B620010C20F22D210C20F9008F1120BB800003F
:103B720000009007DFE0FCA3E0FDA3E0FEA3E0FF6E
:073B82009008ED120BAC22CC
:03437900A20F226E
:05435C00C210C20F2297
:05436100A216920C22DF
:05436600A217920D22D8
:05436B00A201920A22EC
:05437000A218920B22CF
:0C31F100C111C1924109B0004109AF00BA
:10324C009007CA120BAC759850438780438E40533D
:10325C008EFE53890F4389209009B0E0B4010853C6
:10326C00A23F43A240800353A23FE58730E705E429
:10327C007B108003E47B20FAF9F89007CAE0FCA3EA
:10328C00E0FDA3E0FEA3E0FF120AD29007CEE0F827
:10329C00A3E0F9A3E0FAA3E0FB120AD2120B648FAD
:1032AC008D8F8BC2ABD28ED2ACD2BC20110575994E
:0432BC0020D21122E9
:1041D500EFB401079009B07401F022E49009B0F042
:0141E50022B7
:030023000239DAC5
:1039DA00C0E0C0F0C083C082C0D075D000C000C0B3
:0D39EA0001C002C003C004C005C006C00734
:1039F700309807C298AF991236FD309904C299C220
:013A070012AC
:103A0800D007D006D005D004D003D002D001D00012
:0B3A1800D0D0D082D083D0F0D0E032BC
:1038F200900807EFF09009AFE07005900807803359
:103902009009AFE0B4010A900807E0FF12000080BE
:10391200279009AFE0B4020A900807E0FF12000006
:1039220080169009AFE0900807B40307E0FF124346
:0E393200018005E0FF120003900807E0FF226D
:06433A009009AFEFF02234
:080003002012FDD2128F992298
:103D40009009A6EBF0A3EAF0A3E9F09009A6E0FB46
:103D5000A3E0FAA3E0F912095760179009A6A3E4BB
:103D600075F0011209E7A9F0FA120957FF120003D2
:033D700080D922D5
:103DD9009009A9EBF0A3EAF0A3E9F0ED1DAE047098
:103DE900011C4E601C2012FDD2129009A9E0FBA310
:103DF900E475F0011209E7A9F0FA120957F599805B
:023E0900DA22BB
:044375002012FD22F3
:103C130090067DA3E0FF04F0700690067DE004F0BB
:103C230090067DE0B4010CA3E0B40007E490067DA8
:103C3300F0A3F0C2AF900682E024FFF0900681E08B
:103C430034FFF0D2AF747D2FF582E43405F583E0C1
:013C5300FF71
:013C5400224D
:1036FD0090079CEFF012428FC3EE94015047900754
:10370D009CE0FF900680E0247DF582E43405F5838E
:10371D00EFF0900680E004F0700690067FE004F074
:10372D0090067FE0B4010CA3E0B40007E490067F9F
:10373D00F0A3F0C2AF900682E004F070069006810F
:06374D00E004F0D2AF22FF
:0C428F00C2AF900681E0FEA3E0FFD2AFBA
:01429B002200
:1041F600E490067DF0A3F0A3F0A3F0A3F0A3F022D1
:10002600454E443B00313B00303B004F4B002573AF
:100036003B007777772E776F6F6D6F6E2E636E3B13
:1000460000000000000000000000000000000000AA
:1000560031303030313B7777772E776F6F6D6F6E3B
:100066002E636E3B00000000000000000000000050
:100076000000000032303030303B3132303B00007F
:0A0086000A282E4C521E061E060624
:0D429C00E4F5C7F5C5F5C675C380F5C4226D
:1041570075C78375C5018FC4EEF5C375C65A75C695
:07416700A500AFC212429C4B
:01416E00222E
:10413E0075C78375C5028FC4EEF5C3AF058FC27503
:09414E00C65A75C6A50002429C88
:10416F0075C78375C5038FC4EEF5C375C65A75C67B
:05417F00A50002429CB6
:0F305200E493FF900941E4F0A3EFF07F007E02CA
:1030610090093AEEF0A3EFF0A3EBF0A3EAF0A3E9A5
:01307100F06E
:10307200E4900943F0A3F0900941E0FEA3E0FFA32E
:10308200E0FCA3E0FDC39FEC9E504590093BE02D80
:10309200FF90093AE03CFE900940E02FFF90093F83
:1030A200E03EFE12415790093CE0FBA3E0FAA3E0A8
:1030B200F9900943E0FCA3E0F5828C83EF1209AF9B
:1030C200900944E004F070AF900943E004F080A757
:0130D20022DB
:102EA800900088E493FF90094AE4F0A3EFF09000C3
:102EB8008DE493FF90094CE4F0A3EFF07F007E02CD
:102EC800900945EEF0A3EFF0A3EBF0A3EAF0A3E935
:012ED800F009
:102ED900E490094EF0A3F090094CE0FEA3E0FFA3B3
:102EE900E0FCA3E0FDC39FEC9E5043900946E02D12
:102EF900FF900945E03CFE90094BE02FFF90094AFD
:102F0900E03EFE900947E0FBA3E0FAA3E0F990094F
:102F19004EA3E0F5828C83120970FD12413E90099F
:0E2F29004FE004F070B190094EE004F080A972
:012F37002277
:102428007F007E02124157EF641570030224BF7FBC
:102438000012416F7D1512413E7BFF7A007938907A
:102448000086E493FF90094AE4F0A3EFF090008B34
:10245800E493FF90094CE4F0A3EFF07F00122EC83C
:102468007BFF7A007956900087E493FF90094AE44D
:10247800F0A3EFF090008C122EB97BFF7A00795C04
:10248800122EA87BFF7A00797A900089E493FF9056
:10249800094AE4F0A3EFF090008E122EB97BFF7A80
:1024A80000798090008AE493FF90094AE4F0A3EF52
:1024B800F090008F122EB97B017A08790890008677
:1024C800E493FF90093FE4F0A3EFF090008B123003
:1024D8005212346A7B017A087930E4FF1238567B4D
:1024E800017A087908900087E493FF90093FE4F0A7
:1024F800A3EFF090008C12305212346A7F01123828
:10250800507B017A087908900088E493FF90093F8E
:10251800E4F0A3EFF090008D12305212346A7F027B
:102528001238507B017A087908900089E493FF906B
:10253800093FE4F0A3EFF090008E12305212346A93
:102548007B017A0879307F031238567B017A087943
:102558000890008AE493FF90093FE4F0A3EFF0901D
:10256800008F12305212346A7B017A0879307F0466
:0C25780012385690088C7401F0A304F097
:012584002234
:10346A009009887401F0A37408F0A37430F07B010A
:04347A007A0879084B
:0B347E00900985EBF0A3EAF0A3E9F051
:10348900E4FF900985E0FBA3E0FAA3E0F98F8275D8
:103499008300120970FEB43B14900988E0FBA3E095
:1034A900FAA3E0F98F82758300E40209AF900988D5
:1034B900E0FBA3E0FAA3E0F98F82758300EE12091D
:0434C900AF0F80BE03
:063850007B017A087930CB
:103856009009A3EBF0A3EAF0A3E9F09009A2EFF038
:10386600603A9009A2E0FF64016031EFB402147877
:103876006E7C087D019009A3E0FBA3E0FAA3E0F9C2
:10388600020E5A9009A2E0B4031278687C087D0102
:0D389600A3E0FBA3E0FAA3E0F9120E5A2212
:0B15190090088EEBF0A3EAF0A3E9F0CD
:10152400A3E4F0A3F0A3F0F9A3C9F0A3F0A3E9F0B6
:10153400C219E49008B7F09008B7E0FFC3940550CF
:101544001474B82FF582E43408F583E4F09008B7F6
:10155400E004F080E290088EE0F9A3E0FAA3E0A3AF
:10156400C9F0A3EAF0A3E9F0E49008B7F090089179
:10157400E0FBA3E0FAA3E0F97D2C124086900894E6
:10158400EBF0A3EAF0A3E9F04A4B700302171E90B4
:101594000891A3E0FAA3E0AE02FFA3A3E0FAA3E05C
:1015A400C39FFFEA9EFED3EF9400EE6480948050C4
:1015B4000302171E9008B7E0600A900892E475F0E1
:1015C400011209D1E49008B6F0900891E0FBA3E081
:1015D400FAA3E0F9120957642C6029900891A3E456
:1015E40075F0011209E7A9F0FA120957FF9008B63D
:1015F400E02498F582E43408F583EFF09008B6E02F
:1016040004F080C59008B6E02498F582E43408F527
:1016140083E4F07B017A0879981229B9900897EF4E
:10162400F0900894E0FBA3E0FAA3E0F9900891EBB2
:10163400F0A3EAF0A3E9F07D3B124086900894EB16
:10164400F0A3EAF0A3E9F04A4B700302171E9008D6
:1016540091A3E0FAA3E0AE02FFA3A3E0FAA3E0C3E0
:101664009FFFEA9EFED3EF9400EE648094805003C3
:1016740002171E900892E475F0011209D1E4900853
:10168400B6F0900891E0FBA3E0FAA3E0F912095741
:10169400643B6029900891A3E475F0011209E7A95D
:1016A400F0FA120957FF9008B6E02498F582E43462
:1016B40008F583EFF09008B6E004F080C59008B612
:1016C400E02498F582E43408F583E4F0900894E08B
:1016D400F9A3E0FAA3E0900891C9F0A3EAF0A3E922
:1016E400F0900897E0FFC3940550207B017A0879B5
:1016F40098122D7EE433FF6012900897E024B8F529
:1017040082E43408F5837401F0D2199008B7E00438
:10171400F0E0C394645003021571301903122E13C0
:1017240090095374FFF0A37400F0A37426F090089A
:101734008EE0FBA3E0FAA3E0F9122B6EE49008B765
:10174400F09008B7E0FFC39405503E74B82FF582BB
:10175400E43408F583E0900953B4010C74FFF0A35A
:101764007400F0A3742B800A74FFF0A37400F0A338
:10177400742EF090088EE0FBA3E0FAA3E0F9122B9C
:101784006E9008B7E004F080B890095374FFF0A39A
:101794007400F0A37431F090088EE0FBA3E0FAA388
:0617A400E0F9122B6ED3E8
:0117AA00221C
:0B2D7E0090098BEBF0A3EAF0A3E9F052
:102D8900A3E4F0A3F0A3F0EF14600F14600E146035
:102D99002A14600624047002C322C322786E7C08B8
:102DA9007D0190098BE0FBA3E0FAA3E0F9120D7114
:102DB900EF6006786E7C08803FC32290098BE0FBA8
:102DC900A3E0FAA3E0F8AC02AD037B017A087968C5
:102DD900120D71EF7002C32290098BE0FBA3E0FA98
:102DE900A3E0F91227C9E4FBFA7901F8D3120B72AF
:102DF9005002C32278687C087D0190098BE0FBA30F
:0A2E0900E0FAA3E0F9120E5AD322FA
:102E13007F007E0212416F7B017A0879BDE490093D
:102E23004AF0A3F0A3F0A3740AF0122EC89007E2AD
:102E330074FFF0A37400F0A37434F0A37401F0A33F
:102E43007408F0A3746EF07B017A0879BD120F60E9
:102E53007B017A0879BD122EA89007E274FFF0A3D4
:102E63007400F0A37434F0A37401F0A37408F0A306
:102E73007468F07B017A0879BD120F607B017A08D0
:102E830079BD900089E493FF90094AE4F0A3EFF041
:102E930090008EE493FF90094CE4F0A3EFF07F00E1
:052EA3007E02022EC8B2
:103B8900900454E0FEA3E024C4F58274023EF58358
:103B9900E0FF900455E004F07006900454E004F04E
:103BA900900454E0B4010CA3E0B49007E4900454E9
:103BB900F0A3F0C2AF900459E024FFF0900458E05C
:053BC90034FFF0D2AF53
:013BCE0022D4
:05364800900797EFF070
:10364D001242EFC3EF9490EE9401504A900797E029
:10365D00FF900456E0FCA3E024C4F58274023CF50F
:10366D0083EFF0900457E004F07006900456E004E8
:10367D00F0900456E0B4010CA3E0B49007E490047C
:10368D0056F0A3F0C2AF900459E004F07006900418
:06369D0058E004F0D2AF7A
:0136A3002204
:0942EF00900458E0FEA3E0FF2258
:10420600E4900454F0A3F0A3F0A3F0A3F0A3F022EB
:103BCF00900783A3E02483F582E43406F583E0FFB6
:103BDF00900784E004F07006900783E004F09007EC
:103BEF0083E0B4010CA3E0B40007E4900783F0A3D3
:103BFF00F0C2AF900788E024FFF0900787E034FF12
:033C0F00F0D2AF41
:013C1200228F
:0536A40090079DEFF00E
:1036A9001242A9C3EF9420EE9401504790079DE080
:1036B900FF900786E02483F582E43406F583EFF072
:1036C900900786E004F07006900785E004F0900703
:1036D90085E0B4010CA3E0B40007E4900785F0A3EA
:1036E900F0C2AF900788E004F07006900787E00405
:0336F900F0D2AF5D
:0136FC0022AB
:0C42A900C2AF900787E0FEA3E0FFD2AF99
:0142B50022E6
:10421600E4900783F0A3F0A3F0A3F0A3F0A3F022A9
:0231FD00C113FC
:1030D3009007CB120BAC53BAFB758450E47B04FA14
:1030E300F9F89007CBE0FCA3E0FDA3E0FEA3E0FF2B
:1030F300120AD29007CFE0F8A3E0F9A3E0FAA3E025
:10310300FB120AD2EFF404F5D3E47B04FAF9F89046
:1031130007CBE0FCA3E0FDA3E0FEA3E0FF120AD28D
:103123009007CFE0F8A3E0F9A3E0FAA3E0FB120ACB
:10313300D2C3E49FFFE49EFE74019DFDE49CFC78F2
:1031430008120B998FD243D12043D18043AF102271
:03009300023753DE
:10375300C0E0C0F0C083C082C0D075D000C000C03C
:0D37630001C002C003C004C005C006C007BD
:10377000E58430E00E5384FEAF85EFB43E02C21400
:0D3780001236A4E58430E1055384FDC21328
:10378D00D007D006D005D004D003D002D001D00090
:0B379D00D0D0D082D083D0F0D0E0323A
:03437C00D2142236
:03437F00A2142263
:084301002013FDD2138F852269
:103D73009007DFEBF0A3EAF0A3E9F09007DFE0FBA5
:103D8300A3E0FAA3E0F912095760179007DFA3E451
:103D930075F0011209E7A9F0FA120957FF1243015E
:033DA30080D922A2
:103E0B009009ACEBF0A3EAF0A3E9F0ED1DAE047062
:103E1B00011C4E601C2013FDD2139009ACE0FBA3D8
:103E2B00E475F0011209E7A9F0FA120957F585803C
:023E3B00DA2289
:1019D70041542B554152543D31393230302C382C3B
:1019E700312C302C330D0A005769666920737461F6
:1019F700727420776F726B0D0A00576966695F57BB
:101A07004946495F41545F4F4B0D0A0041540D0A47
:101A170000415445000D0A0041542B43574D4F4494
:101A2700453D0041542B43574C41504F50543D00C6
:101A37002562750041542B43574C41500D0A004114
:101A4700542B43574A41503D2200222C2200220D9D
:101A57000A0041542B43495053544152543D002CE2
:101A67002254435022002C2200222C002C32004109
:101A77006C726561647920636F6E6E6563740D0ABD
:101A87000041542B434950434C4F53453D00256477
:101A97000041542B43495053454E443D0043757212
:101AA70072656E742057494649206D6F6465203A08
:101AB70020706F696E7432706F696E740D0A005012
:101AC7006C656173652063616C6C205032505F52A6
:101AD7006563656976654461746128290D0A005359
:101AE700656E644F6B61792C20256C646D730D0AEC
:101AF7000053656E6454696D656F75742C20256C91
:101B0700646D730D0A0041542B43574A41503F0DF2
:101B17000A0041542B4349505354415455530D0A1D
:101B27000041542B43575341503D2200222C313161
:101B37002C0041542B5253540D0A0041542B434956
:101B4700504D55583D0041542B47534C503D004193
:101B5700542B534C4545503D00574946495F54491E
:101B67004D454F55540D0A0041542B43575354418B
:101B77005254534D4152543D310053746172745362
:101B87006D617274436F6E6669670D0A0041542B6D
:101B9700435753544F50534D4152540053746F7031
:0E1BA700536D617274436F6E6669670D0A00BC
:1031FF008201000081030081000045046800000087
:10320F000000410577004104640041046600420458
:10321F006D000041045D0041057C0042045B00002D
:10322F0042045E00004104650041045A00410576E6
:0C323F000041046700440460000000002F
:10403000D283D282D2C57FE87E037D007C00123A13
:0E404000FBD2A77FF47E017D007C00023AFBDC
:0D42B600C2A77FC87E007D007C00023AFB9D
:0F427100E47801F208F208F2900464F0024216B9
:102CDD00C2AF9007CF120BB80001C2007F007E80FB
:102CED007D517C011230D3124216124206D2AFE44E
:102CFD009007CAF07BFF7A1979D7123D737FF47E66
:102D0D00017D007C00123AFB9007CAE004F0E0C39D
:102D1D00940340E0C2AF9007CF120BB800004B00F8
:102D2D007F007E807D517C011230D3D2AF7FF47E47
:102D3D00017D007C00123AFB7BFF7A1979EF120FAF
:102D4D0066E49007CAF0124184BF01097BFF7A1A2D
:102D5D007901120F669007CAE004F0E0C3940340B6
:102D6D00E5E4FF123F777F01123ECC7F01123E3D1D
:012D7D002233
:104184007BFF7A1A7913123D73123AB3BF01037F8E
:0541940001227F002262
:103F77009007CBEFF07BFF7A1A7918123D73900701
:103F8700CBE02430FF1243017BFF7A1A791C123DE4
:083F9700737FE87E03023AB7D4
:103ECC009007CBEFF07BFF7A1A791F123D739007A6
:103EDC00CBE02430FF1243017BFF7A1A791C123D90
:0D3EEC0073123AB3BF01037F01227F002251
:0835EB00900922EFF0A3EDF0BE
:1035F3007BFF7A1A792A123D73900922E02430FF67
:103603001243017F2C1243019007E274FFF0A3746D
:103613001AF0A37437F0900923E09007E5F07B01DB
:103623007A097924120F607B017A097924123D7398
:103633007BFF7A1A791C123D73123AB3BF01037FE1
:0436430001227F00E1
:013647002260
:0832C0009007CAECF0A3EDF049
:1032C80090046FEBF0A3EAF0A3E9F09007CAE0FEE0
:1032D800A3E0FF7D00120E7790057C7401F0900743
:1032E800CAE0FFA3E090045BCFF0A3EFF0E4900402
:1032F8005EF0A3F07BFF7A1A793B123D737F107E54
:1033080027123AB7BF0107E490057CF0FF22D3905B
:10331800045FE0940090045EE09400E490057C4033
:0733280003F0FF22F07F011A
:01332F00227B
:102F38009007CAEBF0A3EAF0A3E9F0E490045DF08F
:102F48007BFF7A1A7946123D739007CAE0FBA3E02B
:102F5800FAA3E0F9123D737BFF7A1A7951123D7397
:102F68009007CDE0FBA3E0FAA3E0F9123D737BFFE5
:102F78007A1A7955123D737F307E75123AB7EF642D
:102F880001703890045DE0FEB40109900464740196
:102F9800F07F0022EE70037F012290045DE0FEB412
:102FA80002037F0222EEB403037F032290045DE054
:0E2FB800FEB404037F0422EE7F01227F01227B
:0B2585009007CAEBF0A3EAF0A3E9F016
:102590007BFF7A1A7959123D739007CAE0FBA3E0DA
:1025A000FAA3E0F99000351209702430FF124301BC
:1025B0007BFF7A1A7966123D737BFF7A1A796D1266
:1025C0003D739007CAE0FBA3E0FAA3E0F990003462
:1025D000120970B4010DE92416F9E43AFA9007CD16
:1025E000EB800C9007CAE0F9A3E0FAA3E0A3C9F0DE
:1025F000A3EAF0A3E9F09007CDE0FBA3E475F001B6
:102600001209E7A9F0FA120957FF1243019007CD0A
:10261000E0FBA3E0FAA3E0F912095770D97BFF7A37
:102620001A7970123D739007CAE0FBA3E0FAA3E0A9
:102630002410F9E43AFA123D737BFF7A1A79731287
:102640003D737BFF7A1A791C123D73E490045AF0B3
:102650007F407E1F123AB7BF011F9007CAE0FBA35D
:10266000E0FAA3E0F99000351209702468F582E4DD
:102670003404F5837401F0FF2290045AE0B402267A
:102680007BFF7A1A7976120F669007CAE0FBA3E007
:10269000FAA3E0F99000351209702468F582E43459
:0826A00004F5837401F07F00D2
:0126A800220F
:1034CD009007CAEBF0A3EAF0A3E9F07BFF7A1A7933
:1034DD0088123D739007CAE0FBA3E0FAA3E0F990D0
:1034ED0000351209702430FF1243017BFF7A1A79DF
:1034FD001C123D737FD07E07123AB7BF011F900794
:10350D00CAE0FBA3E0FAA3E0F9900035120970249C
:10351D0068F582E43404F583E4F07F01227F002214
:0B210E009007CAEBF0A3EAF0A3E9F091
:102119009007E274FFF0A3741AF0A37495F0900786
:10212900D0E0FFA3E09007E5CFF0A3EFF07B017AC1
:102139000779D2120F607BFF7A1A7998123D739052
:1021490007CAE0FBA3E0FAA3E0F990003512097091
:102159002430FF1243017F2C1243017B017A077956
:10216900D2123D737BFF7A1A791C123D73E49004F5
:102179005AF012437C7FE87E037D007C00123B42CB
:1021890012437F500512437950F6124379502A9031
:10219900045AE06401600302226D9007CAE0FBA3C0
:1021A900E0FAA3E0F99000351209702468F582E499
:1021B9003404F583E4F002226DE49007DCF0A3F027
:1021C9009007D0E0FEA3E0FF9007DCE0FCA3E0FD70
:1021D900C39FEC9E50269007CDE0FBA3E0FAA3E055
:1021E900F98D828C83120970FF1243019007DDE09B
:1021F90004F070CC9007DCE004F080C4E490047330
:10220900F0A3F0A3F07FE87E03FDFC123B429004AB
:1022190073E0B405028007900474E0B40107E49008
:1022290007DEF0801A900475E0B402089007DE74A6
:1022390001F0800B12437950D59007DE7402F090BB
:1022490007DEE0701F9007CAE0FBA3E0FAA3E0F9FC
:102259009000351209702477F582E43405F583E49A
:10226900F07F01229007CAE0FBA3E0FAA3E0F9900E
:1022790000351209702477F582E43405F583E0040A
:10228900F0900035120970FF2477F582E43405F5E2
:1022990083E0D39414400C74682FF582E43404F578
:0522A90083E4F07F005A
:0122AE00220D
:103153009007CAEBF0A3EAF0A3E9F0A3ECF0A3ED28
:01316300F07B
:10316400E4A3F0A3F0900465E0704D1242EFEF4E3B
:1031740060581242EFEF4E6036123B899007CAE066
:10318400FBA3E0FAA3E0F99007CFE475F00112097C
:10319400E785F082F583EF1209AF9007CDE0FCA339
:1031A400E0FDA3E0FEA3E0FFC39DEE9C40C422909B
:1031B40007CFE0FEA3E0FF227BFF7A1A79A4120F67
:0D31C400667BFF7A1A79C6120F66E4FEFFE3
:0131D10022DB
:0B2C3300900915EBF0A3EAF0A3E9F014
:102C3E009007E274FFF0A3741AF0A37495F0AF0539
:102C4E00A3ECF0A3EFF07B017A097918120F607BE9
:102C5E00FF7A1A7998123D73900915E0FBA3E0FAFA
:102C6E00A3E0F99000351209702430FF1243017F62
:102C7E002C1243017B017A097918123D737BFF7A7E
:102C8E001A791C123D7312437CE490045AF07FF4BF
:102C9E007E01FDFC123B4212437F500512437950D8
:102CAE00F6124379502690045AE0B4011C9009158F
:102CBE00E0FBA3E0FAA3E0F9900035120970246856
:0E2CCE00F582E43404F583E4F07F00227F01F8
:012CDC0022D5
:0B26A90090092EEBF0A3EAF0A3E9F08B
:1026B400E4900937F0A3F0900934E0FEA3E0FF9022
:1026C4000937E0FCA3E0FDC39FEC9E50269009313E
:1026D400E0FBA3E0FAA3E0F98D828C83120970FF7A
:1026E400124301900938E004F070CC900937E004FB
:1026F400F080C4900936E0640160030227C89004A6
:1027040073F0A3F0A3F07FE87E03FDFC123B42903C
:102714000473E0B405028007900474E0B40107E494
:10272400900939F0801A900475E0B40208900939D0
:102734007401F0800B12437950D59009397402F07A
:10274400900939E0702D90092EE0FBA3E0FAA3E094
:10275400F99000351209702477F582E43405F58385
:10276400E4F01242449007E2120BAC7BFF7A1A7930
:10277400E6800F1242449007E2120BAC7BFF7A1AF8
:1027840079F8120F6690092EE0FBA3E0FAA3E0F9B2
:102794009000351209702477F582E43405F583E05E
:1027A40004F0900035120970FF2477F582E43405B3
:1027B400F583E0D39414400C74682FF582E4340458
:0427C400F583E4F0C5
:0127C80022EE
:103FEC007BFF7A1B790D123D73123AB37BFF7A1B60
:103FFC007919123D737FD07E07123AB7BF01037F48
:05400C0001227F0022EB
:0D42C30074682FF582E43404F583E0FF22D7
:06434000900464E0FF227E
:1037A80090096BEBF0A3EAF0A3E9F07BFF7A1B79B1
:1037B80028123D7390096BE0FBA3E0FAA3E0F9122D
:1037C8003D737BFF7A1A7951123D7390096EE0FBC5
:1037D800A3E0FAA3E0F9123D737BFF7A1B79331259
:1037E8003D73900971E02430FF1243017BFF7A1A80
:0537F8007955023D734C
:0942F8007BFF7A1B7939023D734A
:103E3D009007CBEFF07BFF7A1B7942123D73900711
:103E4D00CBE02430FF1243017BFF7A1A791C123D1F
:103E5D00737F207E03123AB7BF01037F01227F00DB
:013E6D002232
:103A6B009007E274FFF0A3741AF0A37495F0A3EE21
:103A7B00F0A3EFF07B017A09795A120F607BFF7A82
:103A8B001B794D123D737B017A09795A123D737B79
:103A9B00FF7A1A791C123D737F207E03123AB7BF4F
:073AAB0001037F01227F00EF
:013AB20022F1
:103E6E009009B1EFF07BFF7A1B7956123D739009E2
:103E7E00B1E02430FF1243017BFF7A1A791C123D08
:103E8E00737F207E03123AB7BF01037F01227F00AA
:013E9E002201
:100096001242A9EF4E70030209567800E2900789D2
:1000A600F0123BCF7800EFF2900466E0FF64036045
:1000B6001BE2FE0808E2FD2401F218E2FC3400F21D
:1000C60074762DF58274043CF583EEF07801E2FC3B
:1000D60008E2FDD394FFEC94004005E418020950B1
:1000E600EF7027ED64054C7021900476E0B42B1A6E
:1000F600A3E0B44915A3E0B45010A3E0B4440BA3A5
:10010600E0B42C069004667401F0900466E0FFB437
:1001160001107800E2642C60030200967402F0027B
:100126000096EFB402247800E2643A600302009677
:100136007B017A04797D1229B990046DEEF0A3EF64
:10014600F09004667403F0020096900466E064037F
:10015600703B90046EE024FFF090046DE034FFF0F5
:10016600900465E078007007E2FF1236488005E2E9
:10017600FF12000090046DE0FEA3E04E6003020053
:1001860096900466F07803F278010209509004769E
:10019600E0B43E0EA3E0B42009E47803F27801024D
:1001A60009507800E2640A6003020096900789E02D
:1001B600640D600302009608E2FE08E22474F582EC
:1001C60074043EF583E4F0900476E0FFB44111A395
:1001D600E0B4540CA3E0B42B07087401F2020279D0
:1001E600EFB42B0878037402F2020279900476E0E9
:1001F600B44F0CA3E0B44B0778037403F2807490F9
:100206000476E0FF6445701BA3E0B45216A3E0B485
:100216005211A3E0B44F0CA3E0B452077803740460
:10022600F28050EFB46218900477E0B47511A3E041
:10023600B4730CA3E0B4790778037405F2803490A4
:100246000476E064537027A3E064457021A3E0645C
:100256004E701BA3E0B44416A3E0B42011A3E0B48F
:100266004F0CA3E0B44B0778037406F280057803BD
:100276007407F29007927401F0A37404F0A37476E5
:10028600F07803E224FD70030204B714700302043D
:10029600BD1470030204C31470030204C91470036E
:1002A6000204D22405600302094A900792E0FBA3E8
:1002B600E0FAA3E0F99000011209706443705090CF
:1002C60000021209706449704690000312097064B6
:1002D60050703C900004120970645370329000050F
:1002E60012097064547028900006120970B4411FF8
:1002F600900007120970B45416900008120970B4E1
:10030600550D9000091209706453700302094A9052
:100316000792E0FBA3E0FAA3E0F99000011209704E
:10032600FF644370349000021209706457702A907B
:100336000003120970B44A21900004120970B441F6
:1003460018900005120970B4500F9000071209703A
:1003560024D190045DF002094AEF6443600302046D
:1003660072900002120970645760030204729000D2
:1003760003120970644C60030204729000041209AF
:1003860070644160030204729000051209706450A3
:10039600600302047290057CE06401600302094A6E
:1003A60090045EE0FEA3E0FF90045BE0FCA3E0C3E4
:1003B6009FFFEC9EFE7801E2FC08E224F6FDEC3499
:1003C600FFFCC3ED9FEC9E400302046A900792E097
:1003D600FBA3E0FAA3E02408F9E43AFA90078AEBD3
:1003E600F0A3EAF0A3E9F0900795E4F0A37402F015
:1003F60090078AE0FBA3E0FAA3E0F9120957642903
:10040600604090078AA3E475F0011209E7A9F0FAA3
:10041600120957FF90046FE0FBA3E0FAA3E0F990FE
:10042600045EE475F0011209E785F082F583EF12A8
:1004360009AF900796E004F070B6900795E004F0D7
:1004460080AE90046FE0FBA3E0FAA3E0F990045EAF
:10045600E475F0011209E785F082F583743B120911
:10046600AF02094AE490057CF002094A900792E03F
:10047600FBA3E0FAA3E0F990000112097064496059
:100486000302094A900002120970645060030209CF
:100496004A9000031209706444600302094A7D3AD7
:1004A60012408690078DEBF0A3EAF0A3E9F002096B
:1004B6004A9004740208EB9004750209479004728E
:1004C6000208AD9004737405F002094A900792E0A1
:1004D600FBA3E0FAA3E0F9900001120970FF642C77
:1004E600704A900002120970644370409000031233
:1004F6000970644C7036900004120970644F702CB9
:10050600900005120970B45323900006120970B4C6
:10051600451A900007120970B4441112095724387D
:10052600F582E43404F583E4F002094A120957FE21
:10053600B44E1AEFB46F16900003120970B4410D51
:10054600900004120970B45004E40206FAEE6453F3
:1005560070789000011209706454706E9000021257
:100566000970644170649000031209706454705AF3
:1005760090000412097064557050900005120970BD
:1005860064537046900007120970FF64346008EFE8
:100596006435600302094AE4900795F0A3F09007DA
:1005A60096E02468F582E43404F583E4F090079637
:1005B600E004F07006900795E004F0900795E0FEE1
:1005C600A3E064054E70D702094A120957645760C2
:1005D60003020701900001120970644960030207D3
:1005E6000190000212097064466003020701900040
:1005F600031209706449600302070190000512099D
:100606007064437062900006120970644F705890CF
:100616000007120970644E704E900008120970644B
:100626004E7044900792E0FBA3E0FAA3E0F9900035
:10063600091209706445702F90000A12097064430C
:10064600702590000B120970B4541C90000C12090E
:1006560070B4451390000D120970B4440A90045DFD
:100666007401F0900464F0900792E0FBA3E0FAA313
:10067600E0F99000051209706444600302094A908B
:1006860000061209706449600302094A90000712C5
:1006960009706453600302094A90000812097064E5
:1006A60043600302094A900009120970644F60030F
:1006B60002094A90000A120970644E600302094A50
:1006C60090000B120970644E600302094A90000CF8
:1006D6001209706445600302094A90000D12097000
:1006E6006443600302094A90000E12097064546064
:1006F6000302094A900464F002094A900792E0FB5B
:10070600A3E0FAA3E0F9120957FF6452702E900095
:100716000112097064657024900002120970B463B6
:100726001B900003120970B476129000041209702F
:10073600B420099004737404F002094AEF646C70E3
:100746003F90000112097064697035900002120929
:1007560070646E702B900003120970646B702190A8
:100766000004120970B42018900005120970B469CB
:100776000F900006120970B4730690045A0208EB33
:100786001209576441705E900001120970644C7042
:10079600549000021209706452704A9000031209C4
:1007A6007064457040900004120970644170369080
:1007B60000051209706444702C900006120970B48A
:1007C6005923900007120970B4201A900792E0FB93
:1007D600A3E0FAA3E0F9900008120970B44306906A
:1007E600045A020947900792E0FBA3E0FAA3E0F956
:1007F600120957FF647360030208B39000011209DF
:1008060070646D60030208B390000212097064619F
:1008160060030208B3900003120970647260030259
:1008260008B3900004120970647460030208B39060
:10083600000C1209706463600302094A90000D12ED
:100846000970646F600302094A90000E1209706411
:100856006E600302094A90000F120970646E60030D
:1008660002094A9000101209706465600302094A81
:100876009000111209706463600302094A90001225
:100886001209706474600302094A90001312097019
:100896006465600302094A9000141209706464607A
:1008A6000302094A9004677403F002094AEF64736D
:1008B6007038900792E0FBA3E0FAA3E0F9900001FC
:1008C60012097064737023900002120970B4691AD9
:1008D600900003120970B46411900004120970B4F8
:1008E6003A089004677401F0805A900792E0FBA3DF
:1008F600E0FAA3E0F91209576470704890000112FB
:1009060009706461703E900002120970647370345D
:100916009000031209706473702A90000412097023
:10092600B47721900005120970B46F189000061272
:100936000970B4720F900007120970B4640690042F
:10094600677402F0E47803F27801F208F202009686
:01095600227E
:043AB3007FE87E0327
:103AB700E4900474F0A3F0FCFD123B42900474E020
:103AC7006401600BA3E06402600512437950ED12B4
:103AD7004379500C7BFF7A1B7960120F667FE022D7
:103AE700900474E0B401037F0122900475E0B402EE
:043AF700027F022226
:103F9F009009B2EFF0E4900473F0AE04AF05FCFDAE
:103FAF00123B429009B2E0FF900473E0B507012283
:083FBF0012437950EE7FE0226D
:06434600900465EFF02277
:06434C00900465E0FF2271
:103C9600900576E070367BFF7A1B796F123D737B59
:103CA600FF7A1A791C123D737FD07E07123AB7BF8E
:103CB60001179005767401F0E4900467F07BFF7AB3
:0F3CC6001B7981120F667F00227F01227F02226D
:10358C00900576E070037F0122900467E0FEB4039F
:10359C00099004647401F07F0022EEB4011A124207
:1035AC0044EF2460FFEE34EAFEE43DFDE43CFC9085
:1035BC000460120BAC7F0322900467E0B4021D126E
:1035CC004244900460E0F8A3E0F9A3E0FAA3E0FB26
:0F35DC00C3120B8850037F04227F03227F022239
:103DA6007BFF7A1B7994123D737BFF7A1A791C127A
:103DB6003D737FD07E07123AB7BF01147BFF7A1B93
:103DC60079A3120F66E4900576F0900467F0FF225F
:033DD6007F012248
:1022AF00534B32202056657273696F6E203A20258A
:1022BF00730D0A0076312E312E36004D43552049CD
:1022CF0044203A2025730D0A004D41494E5F466F59
:1022DF0073632020203A20256C64487A0D0A00553C
:1022EF00415254315F4241554420203A20256C64BD
:1022FF004270730D0A003232312E3132322E3131AB
:10230F00352E393900313030303100537563636504
:10231F00737320636F6E6E65637420574946490D62
:10232F000A005375636365737320636F6E6E656325
:10233F007420544350207365727665720D0A004CF9
:10234F0069737420617661696C61626C65204150BC
:10235F002061726F756E64203A200025730D0A009C
:10236F005458203A2025642C20256C646D730D0A77
:10237F000052656376475052532044617461203A8E
:10238F0020000D0A005749464920446F776E6C6F45
:10239F0061642066696E6973680D0A000D0A536BDC
:1023AF006970205749464920446F776E6C6F61649E
:1023BF000D0A00576966695F574946495F41545F87
:1023CF004F4B0D0A005749464920436865636B2000
:1023DF00202020202020202020706173730D0A0000
:1023EF005749464920436865636B200909096661AF
:1023FF00696C0D0A004368696E614E65742D6D58E6
:10240F006E45000000000073366671713734660048
:09241F00000000000000000000B4
:101260009007A6120BB8000000009007AA120BB856
:10127000000000009007AE120BB800000000E490E0
:1012800007B2F0A3F0A3F0C2AFD2011240A2D20184
:1012900012404E1240117F007E807D517C01123E33
:1012A0009F123330D2AF7F0A7E007D007C00123A5D
:1012B000FB9007E274FFF0A37422F0A374C3F07BE9
:1012C000FF7A2279AF120F667B017A0779B6123A5C
:1012D000239007E27401F0A37407F0A374B6F07BC7
:1012E000FF7A2279CA120F667BFF7A2279D890079B
:1012F000E2120BB801518000120F667BFF7A22794F
:10130000EE9007E2120BB80001C200120F667F0ACE
:101310007E007D007C00123AFB122A9490019774A3
:1013200001F078627C01FD7BFF7A237905120E5A69
:1013300078727C017D017BFF7A237914120E5AE4C6
:10134000900196F0D20112436B122CDD124340EF54
:1013500070239007CD74FFF0A37424F0A37416F0EB
:101360007BFF7A247904122F38EF70097BFF7A23F0
:10137000791A120F66900197E0FF1242C3EF6401E1
:10138000601B124340BF01157B017A01796212256F
:1013900085BF01097BFF7A237931120F6612425310
:1013A0009007AAE0F8A3E0F9A3E0FAA3E0FBC312D8
:1013B0000B885019123FEC124253EF243CFFE43EDD
:1013C000FEE43DFDE43CFC9007AA120BAC12425334
:1013D0009007A6E0F8A3E0F9A3E0FAA3E0FBC312AC
:1013E0000B8840030214AD900197E0FF1242C3EF57
:1013F000640160030214AD7B017A0179987D2C7C35
:10140000011232C0EF70207BFF7A23794E120F66F3
:101410009007E27401F0A37401F0A37498F07BFFCD
:101420007A23796A120F667B017A017998124199C1
:101430009007D0EEF0A3EFF09007CD7401F0A37405
:1014400001F0A37498F07B017A01796212210EEF0A
:10145000640170599007B4E004F070069007B3E09F
:1014600004F01242539007E4120BAC7BFF7A23790D
:101470006F9007B3E0FFA3E09007E2CFF0A3EFF097
:10148000120F66124253EF240AFFE43EFEE43DFDD4
:10149000E43CFC9007A6120BAC7FE87E037D007C49
:1014A00000123AFB7B017A0179621234CD7B017A1A
:1014B0000079CC7D967C001231539007A0EEF0A30A
:1014C000EFF04E700302134C7BFF7A237980120FEA
:1014D00066E490079EF0A3F09007A0E0FEA3E0FF73
:1014E000C390079FE09F90079EE09E5020A3E024BA
:1014F000CCF582E43400F583E0FF1238F290079FC8
:10150000E004F070D390079EE004F080CB7BFF7A7C
:09151000237991120F6602134CBD
:10401100E4F5D0D2BC43B501C2B99007CE120BB8BA
:0F4021000001C2007F007E807D517C0102324C85
:103330009007CB740CF0E49007CAF07B017A077910
:10334000CAFF121D909007CB7480F09007CA7403D7
:10335000F07B017A0779CA7F02121D909007CB7427
:1033600030F09007CA7403F07B017A0779CA7F04B2
:10337000121D909007CB7440F09007CA7403F07B45
:10338000017A0779CA7F02121D909007CB7410F062
:103390009007CA7401F0FB7A0779CA7F03021D9077
:102A9400E49007CDF0A3F0C20112404ED283C2C528
:102AA400C2A77FC87E007D007C00123AFBD2A77FBC
:102AB400E87E037D007C00123AFBD20112404E7F77
:102AC400887E137D007C00123B42A28292B1A2B0A8
:102AD4009283A2B0E433FFA28292B1A2B092839017
:102AE40007CCE06F6010A3E004F0E0D3940A400642
:102AF400A37401F08012A2B0E4339007CCF0124327
:102B04007950C7E49007CEF09007CEE0B40111C22B
:102B140001124352C2AFA28292B1A2B0928380F654
:102B2400D2AFC20112404E7BFF7A2379AB120F66FB
:102B3400C2B4D283D282D2C5C2A7E49007CDF07FBB
:102B440064FEFDFC123AFBD20112404ED201124344
:102B54006B7F647E007D007C00123AFBD2A7C2AF7B
:0A2B6400A28292B1A2B0928380F623
:03000000022FC606
:0C2FC600787FE4F6D8FD75812302300D01
:10095700BB010689828A83E0225002E722BBFE029E
:09096700E32289828A83E49322D1
:10097000BB010CE58229F582E5833AF583E022503C
:1009800006E92582F8E622BBFE06E92582F8E22286
:0D099000E58229F582E5833AF583E49322A0
:10099D00BB010689828A83F0225002F722BBFE0139
:0209AD00F32233
:1009AF00F8BB010DE58229F582E5833AF583E8F07E
:1009BF00225006E92582C8F622BBFE05E92582C82A
:0209CF00F22212
:1009D100C5F0F8A3E028F0C5F0F8E58215827002B1
:0609E1001583E038F0224E
:1009E700A3F8E0C5F025F0F0E582158270021583C3
:0609F700E0C838F0E82220
:1009FD00BB010A89828A83E0F5F0A3E022500687C5
:100A0D00F009E71922BBFE07E3F5F009E319228986
:0B0A1D00828A83E493F5F074019322B9
:100A2800BB010A89828A83F0E5F0A3F0225006F719
:0F0A380009A7F01922BBFE06F3E5F009F3192216
:100A4700E88FF0A4CC8BF0A42CFCE98EF0A42CFC4E
:100A57008AF0EDA42CFCEA8EF0A4CDA8F08BF0A4CC
:100A67002DCC3825F0FDE98FF0A42CCD35F0FCEB2B
:100A77008EF0A4FEA9F0EB8FF0A4CFC5F02ECD39F0
:0F0A8700FEE43CFCEAA42DCE35F0FDE43CFC225D
:100A960075F008758200EF2FFFEE33FECD33CDCC17
:100AA60033CCC58233C5829BED9AEC99E58298409A
:100AB6000CF582EE9BFEED9AFDEC99FC0FD5F0D677
:100AC600E4CEFBE4CDFAE4CCF9A88222B800C1B9A1
:100AD6000059BA002DEC8BF084CFCECDFCE5F0CBDF
:100AE600F97818EF2FFFEE33FEED33FDEC33FCEB18
:100AF60033FB10D703994004EB99FB0FD8E5E4F9D3
:100B0600FA227818EF2FFFEE33FEED33FDEC33FCBF
:100B1600C933C910D7059BE99A4007EC9BFCE99AB3
:100B2600F90FD8E0E4C9FAE4CCFB2275F010EF2FF8
:100B3600FFEE33FEED33FDCC33CCC833C810D707F8
:100B46009BEC9AE899400AED9BFDEC9AFCE899F833
:0E0B56000FD5F0DAE4CDFBE4CCFAE4C8F922C6
:0E0B6400C3E49FFFE49EFEE49DFDE49CFC22A2
:100B7200EB9FF5F0EA9E42F0E99D42F0EC6480C8FA
:060B820064809845F0229A
:100B8800EB9FF5F0EA9E42F0E99D42F0E89C45F0C3
:010B9800223A
:100B9900E8600FECC313FCED13FDEE13FEEF13FF3A
:030BA900D8F1225E
:0C0BAC00ECF0A3EDF0A3EEF0A3EFF022BC
:100BB800A8828583F0D083D082120BCF120BCF127C
:100BC8000BCF120BCFE473E493A3C583C5F0C583A1
:100BD800C8C582C8F0A3C583C5F0C583C8C582C887
:010BE80022EA
:100EFB00E50824E2F582E43407F583E00508229047
:100F0B0007DF3008039007E2E475F001120EB5021B
:100F1B0009572001E97F2ED2018018EF540F24903E
:100F2B00D43440D4FF30050BEF24BFB41A00500368
:100F3B002461FFE50960021509050CE50C7002053B
:100F4B000B30080E9007DFE475F001120EB5EF02BF
:100F5B00099D0238F27403D2088003E4C208F50835
:100F6B009007DF120ECCE4F509F50BF50CE50960E3
:100F7B00077F20120F3E80F5750AFFC202C201C225
:100F8B0003C204C206C207C209120F0AFF700D305A
:100F9B0008057F00120F4FAF0CAE0B22B4255FC2BA
:100FAB00D5C205120F0AFF24D0B40A00501A75F0EF
:100FBB000A780930D50508B6FF0106C6A426F62027
:100FCB00D5047002D20480D924CFB41A00EF500498
:100FDB00C2E5D205021150D20280C6D20180C0D226
:100FEB000380BCD2D580BAD20680B47F20120F3ECC
:100FFB002003077401B5090040F1120EFBFF120F1D
:10100B003E020F78D209D2078095120EFBFB120E0F
:10101B00FBFA120EFBF94A4B700679217A127BFF11
:10102B0020032EE509602A7E008E8275830012094B
:10103B007060060EEE650A70F0C2D5EBC0E0EAC038
:10104B00E0E9C0E0EE121197D0E0F9D0E0FAD0E081
:10105B00FB120957FF60AAEBC0E0EAC0E0E9C0E071
:10106B00120F3ED0E02401F9D0E03400FAD0E0FBBF
:10107B00E50A0460DCD50AD980877BFF7A11799366
:10108B00D203809C791080027908C207C2098008BC
:10109B00D2D5790A8004790AC2D5E50A047002F523
:1010AB000AE4FAFDFEFF120EFBFC7B082002131272
:1010BB000EFBFD7B1030010A120EFBFE120EFBFF26
:1010CB007B20EC3382D592D55013C3E43001069FBD
:1010DB00FFE49EFEE42002039DFDE49CFCE4CBF8C0
:1010EB00C202EC700CCFCECDCCE824F8F870F380B4
:1010FB0017C3EF33FFEE33FEED33FDEC33FCEB3375
:10110B00FB994002FB0FD8E9EB300205F8D0E0C4A5
:10111B0048B202C0E00AEC4D4E4F78207B0070C203
:10112B00EAB50A0040BCC0E0121199D0F0D0E02023
:10113B000204C4C0E0C4B202C0F0120F27D0F0D535
:10114B00F0EB020F78120ED5101553108F580FE6D7
:10115B004C0FE24210934F109B44109B490FFB43E3
:08116B0010A155108546108506
:10117300451085471241500FEA2D0FEE2E10112B0B
:101183000FF223100F20122A2A0FAA480000100979
:101193003F3F3F00790AA2D5200414300609B91055
:1011A300020404B9080104A2D52007025001042057
:1011B30003689203B509005034C0E07F203004195E
:1011C3007F30A20372077206500F1211F0C203C2DE
:1011D30007C206C2097F30800F300603E9C0E01260
:1011E3000F3E300603D0E0F9D0E0B509CC30061746
:1011F3007F30B9100C120F3E7F583005077F78807F
:1012030003B90803120F3E3003057F2D020F3E7F03
:10121300202009F87F2B2007F322920380CF286E2A
:10122300756C6C2900D202120EFB3002F8C20278F0
:101233000930D50108F6020FAA2D50434958120E62
:10124300FB2403B405004001E490123C93120F2FDA
:0D125300743A120F2FD20475090402108F97
:100BE900E3F5F009E208B5F06D606B80F3E3F5F029
:100BF90009E608B5F060605E80F387F009E608B59C
:100C0900F054605280F487F009E208B5F048604674
:100C190080F488828C8387F009E0A3B5F0386036C8
:100C290080F488828C8387F009E493A3B5F0276068
:100C39002580F388828C83E3F5F009E0A3B5F016EB
:100C4900601480F388828C83E3F5F009E493A3B5FB
:100C5900F004600280F2020D14808580E7808E80A6
:100C6900D2803C8015806C807E809B80B5808B8093
:100C7900A1804F8070803A020D2A89828A83ECFA1A
:100C8900E493F5F0A3C8C582C8CCC583CCE493A38B
:100C9900C8C582C8CCC583CCB5F070606E80E189C7
:100CA900828A83E493F5F0A3E208B5F05E605C8084
:100CB900F289828A83E0F5F0A3E608B5F04D604B2E
:100CC90080F389828A83E0F5F0A3E208B5F03C60FD
:100CD9003A80F389828A83E493F5F0A3E608B5F0B4
:100CE9002A602880F2805D89828A83ECFAE493F590
:100CF900F0A3C8C582C8CCC583CCE0A3C8C582C847
:100D0900CCC583CCB5F004600280E27F00F845F0E1
:100D1900600EE863F0806480D395F01F40027F0184
:100D29002289828A83ECFAE0F5F0A3C8C582C8CC8F
:100D3900C583CCE0A3C8C582C8CCC583CCB5F0CBEC
:100D490060C980E389828A83ECFAE0F5F0A3C8C51B
:100D590082C8CCC583CCE493A3C8C582C8CCC5835B
:100D6900CCB5F0A760A580E288F0ED2402B40400B8
:100D79005099F582EB2402B40400508F2323458255
:050D890023900C6273D1
:100D8E00E709F60870FA8046E709F20870FA803E25
:100D9E0088828C83E709F0A370FA807EE309F60857
:100DAE0070FA8076E309F20870FA806E88828C837E
:100DBE00E309F0A370FA806289828A83E0A3F608C1
:100DCE0070FA805689828A83E0A3F20870FA804A0C
:100DDE0080D280FA80C680D4806580F28031801007
:100DEE0080A680EA809A80A880DA80E280CA80316C
:100DFE0089828A83ECFAE493A3C8C582C8CCC583E2
:100E0E00CCF0A3C8C582C8CCC583CC70E9800D894F
:100E1E00828A83E493A3F60870F9ECFAA9F0EDFB4D
:100E2E002289828A83ECFAE0A3C8C582C8CCC58326
:100E3E00CCF0A3C8C582C8CCC583CC70EA80DD894E
:100E4E00828A83E493A3F20870F980CE88F0ED24B1
:100E5E0002B4040050C4F582EB2402B4040050BA6C
:090E6E002323458223900DDE735D
:10419900E4FFFE120957600C0FEF70010E09E97078
:0541A900F20A80EF2284
:10408600E94A4B700122120957FF6D700122EF7049
:0C40960004FBFAF92209E970ED0A80EA47
:1027C900900972EBF0A3EAF0A3E9F0900972E0FB3B
:1027D900A3E0FAA3E0F9120957FF1241AE500C9099
:1027E9000973E475F0011209D180E0D21A900972D7
:1027F900E0FBA3E0FAA3E0F9120957FF642B600498
:10280900EFB42D1D900972E0FBA3E475F0011209E4
:10281900E7A9F0FA120957642D6003D38001C39226
:102829001A900975120BB800000000900972E0FBBC
:10283900A3E0FAA3E0F9120957FF1242805068E4B5
:102849007F0AFEFDFC900975E0F8A3E0F9A3E0FA20
:10285900A3E0FB120A47C8ECC8EDC0E0EEC0E0EF08
:10286900C0E0900972E0FBA3E0FAA3E0F91209576E
:10287900FF3395E0FEEF24D0FFEE34FFFEE4FCFDCC
:10288900D0E0FBD0E0FAD0E0F9EB2FFFEA3EFEED15
:1028990039FDEC38FC900975120BAC900973E4759D
:1028A900F0011209D18084301A10900975E0FCA357
:1028B900E0FDA3E0FEA3E0FF8011900975E0FCA311
:0C28C900E0FDA3E0FEA3E0FF120B642280
:1029B900900797EBF0A3EAF0A3E9F0900797E0FB03
:1029C900A3E0FAA3E0F9120957FF1241AE500C90A7
:1029D9000798E475F0011209D180E0D200900797B9
:1029E900E0FBA3E0FAA3E0F9120957FF642B6004A6
:1029F900EFB42D1D900797E0FBA3E475F0011209D0
:102A0900E7A9F0FA120957642D6003D38001C39234
:102A190000E490079AF0A3F0900797E0FBA3E0FA8F
:102A2900A3E0F9120957FF1242805042900797E03C
:102A3900FBA3E0FAA3E0F9120957FF3395E0FEEF93
:102A490024D0FBEE34FFFA90079AE0FEA3E0FF7C66
:102A5900007D0A120EA3EF2BFFEE3A90079AF0A31E
:102A6900EFF0900798E475F0011209D180AA3000BF
:102A79000A90079AE0FEA3E0FF800F90079AE0FE14
:0B2A8900A3E0FFC3E49FFFE49EFE22D9
:100E7700EF4E6012EF60010EEDBB010B89828A8392
:100E8700F0A3DFFCDEFA2289F05007F709DFFCA99F
:0C0E9700F022BBFEFCF309DFFCA9F022F6
:102FD200021260E493A3F8E493A34003F68001F2A3
:102FE20008DFF48029E493A3F85407240CC8C33300
:102FF200C4540F4420C8834004F456800146F6DFCF
:10300200E4800B01020408102040809031D2E47E5B
:10301200019360BCA3FF543F30E509541FFEE493C3
:10302200A360010ECF54C025E060A840B8E493A38A
:10303200FAE493A3F8E493A3C8C582C8CAC583CAB5
:10304200F0A3C8C582C8CAC583CADFE9DEE780BE6D
:01324B000082
:100EA300EF8DF0A4A8F0CF8CF0A428CE8DF0A42E63
:020EB300FE221D
:100EB500F8E0FBA3A3E0F925F0F0E58215827002C6
:070EC5001583E0FA38F0226A
:090ECC00EBF0A3EAF0A3E9F02227
:100ED500D083D082F8E4937012740193700DA3A3AC
:100EE50093F8740193F5828883E4737402936860C0
:060EF500EFA3A3A380DFC0
:0F428000EFC394304007EF943A50028001C322FD
:1041AE00EFC394094005EF940E4004EFB42003D3FF
:0441BE008001C32297
:00000001FF
